:020000040800F2
:10000000D0490020E1010008451400081B10000839
:1000100041140008390300080F2400080000000004
:10002000000000000000000000000000490100087E
:100030009D0D0008000000008D0100089D1C0008B7
:10004000FB010008FB010008FB010008FB010008A0
:10005000FB010008FB010008FB010008FB01000890
:10006000FB010008FB010008FB010008FB01000880
:10007000FB010008FB010008FB010008FB01000870
:10008000FB010008FB010008FB010008FB01000860
:10009000FB010008FB010008FB010008FB01000850
:1000A000FB010008FB010008FB010008FB01000840
:1000B000FB010008FB010008711F0008FB0100089C
:1000C000FB010008FB010008FB010008FB01000820
:1000D000FB01000829230008FB010008FB010008C0
:1000E000FB010008FB010008FB010008FB01000800
:1000F000FB010008FB010008FB010008FB010008F0
:10010000FB010008FB010008FB010008FB010008DF
:10011000FB010008FB010008FB010008FB010008CF
:10012000FB010008FB010008FB010008FB010008BF
:10013000DFF810D000F0A0F800480047352A00088A
:10014000AFF30080D0490020224B19680868B0E85E
:10015000F00F80F30988BFF36F8F4FF0000080F33A
:1001600011884EF00D0E7047000000000648006830
:10017000006880F3088862B661B6BFF34F8FBFF3A3
:100180006F8F00DF00BF00BF08ED00E0EFF30980D4
:10019000BFF36F8F0F4B1A6820E9F00F106008B59E
:1001A0004FF0500080F31188BFF34F8FBFF36F8F74
:1001B00003F0FEFD4FF0000080F31188BDE8084019
:1001C00019680868B0E8F00F80F30988BFF36F8FF3
:1001D000704700BFB4090020EFF3058070470000AE
:1001E0000648804706480047FEE7FEE7FEE7FEE7D1
:1001F000FEE7FEE7FEE7FEE7FEE7FEE7D11C0008AC
:100200003101000840EA01039B0703D009E008C957
:10021000121F08C0042AFAD203E011F8013B00F8CB
:10022000013B521EF9D27047D2B201E000F8012B17
:10023000491EFBD270470022F6E710B513460A4666
:1002400004461946FFF7F0FF204610BD30B50B46B7
:10025000014600202022012409E021FA02F59D42F6
:1002600005D303FA02F5491B04FA02F52844151ECA
:10027000A2F10102F1DC30BD064C074D06E0E0685A
:1002800040F0010394E8070098471034AC42F6D3DD
:10029000FFF752FF384A0008584A000870B58C181A
:1002A00010F8015B15F0070301D110F8013B2A118A
:1002B00006D110F8012B03E010F8016B01F8016B77
:1002C0005B1EF9D12B0705D40023521E0DD401F873
:1002D000013BFAE710F8013BCB1A921C03E013F83C
:1002E000015B01F8015B521EF9D5A142D8D3002071
:1002F00070BD000010B54FF4A06001F0DDF801F012
:100300002DFA01F07BFA00F091FE00F049FD01F0BA
:1003100013F800F06DFF00F057FF04A2002108461B
:1003200000F0F8FF00F07BFE10BD00006C6F646908
:100330006E672E2E2E00000000BFFEE770B505464A
:100340000C46284601F040FA064626EA04012846F3
:1003500002F060F870BD000038B5044600F034FFCC
:10036000207848B903F076F97848302354220021E8
:100370000090084600F0ECFE75480078102873D213
:10038000DFE800F008113F43545773848A90934983
:10039000A3AEBFD06D483023542200210090084600
:1003A00000F0D6FED0E000206A49086003F052F960
:1003B00069483023542200210090084600F0C8FE0E
:1003C0004FF4FA7003F0ACFB00F0FEFE63483023FC
:1003D000542200210090084600F0BAFE4FF4FA7053
:1003E00003F09EFB00F0F0FE584830235422002119
:1003F0000090084600F0ACFE01205949C1F8A00168
:10040000A2E00A2003F09CF99EE056A200210846D3
:1004100000F080FF98E056A20021084600F07AFF25
:10042000564A0121002000F075FF8DE003F03CF9F1
:100430008AE053480078012810D152A200210846D2
:1004400000F068FF4FF47A7003F06AFB00F0BCFE26
:1004500002F06EF90A2003F073F904E041A20021D2
:10046000084600F057FF6FE06DE04AA20021084601
:1004700000F050FF4FF47A7003F052FB00F0A4FE3E
:1004800002F056F90A2003F05BF95DE045A2002175
:10049000084600F03FFF57E046A20021084600F062
:1004A00039FF51E003F08EF94EE046A200210846E4
:1004B00000F030FF47A20121002000F02BFF48A2EE
:1004C0000221002000F026FF3EE049A2002108465C
:1004D00000F020FF4AA20121002000F01BFF33E0C2
:1004E0004BA20121002000F015FF4FF47A7003F0B9
:1004F00017FB00F069FE02F01BF90A2003F020F957
:1005000022E047A20121002000F004FF4FF47A709E
:1005100003F006FB00F058FE02F00AF90A2003F08F
:100520000FF911E042A20121002000F0F3FE4FF488
:100530007A7003F0F5FA00F047FE02F0F9F80A20AD
:1005400003F0FEF800E000BF00BF38BDB90700208F
:10055000350A0020A08121426903002061050020A6
:10056000008021427075742063617264206F6E0098
:10057000656E74657220646174613A005C450020A8
:10058000340A0020206C6F67696E696E67206E6F99
:1005900077200000726F6F74206C6F67206F757426
:1005A0000000000070757420726F6F7420636172B8
:1005B00064000000707574206F6C64206361726465
:1005C0000000000020204D616B657220496E666F4F
:1005D000202000004D616B65723A6368696C6C00A5
:1005E00077783A6368696C6C5F7A687A68000000B3
:1005F000646F20796F75207375726520746F0000C9
:10060000636C65616E20616C6C20646174610000D4
:100610006F70657261746520737563636573000044
:1006200020686173206E6F20726967687420000013
:1006300020206572722068617070656E2020000055
:1006400010B504462F480078092857D2DFE800F09B
:100650000556563B561356414700204602F0B8F95E
:10066000401C20B9204602F093F9401C10B1012033
:100670002449087043E0204602F08AF9401C90B1FA
:1006800001202149087021A20221002000F042FE31
:100690004FF47A7003F044FA02201A4908700020DF
:1006A0001F4908800EE01FA20221002000F032FE48
:1006B0004FF47A7003F034FA0220124908700020D7
:1006C000174908801BE00B200E4908701A48046087
:1006D00015E00B200B490870174804600FE0204616
:1006E00002F076F9401C28B10B2006490870124828
:1006F000046002E00F200349087000E000BF00BF63
:1007000010BD0000350A0020340A0020206C6F67FD
:10071000696E2073756363657373202000000000A9
:10072000360A002020206C6F67696E206661696C54
:100730006420202000000000380A002070B5044624
:10074000F748007818B90220F549087070BD522C9E
:1007500072D012DC302C70D008DC022C60D0102C4F
:100760006CD0182C6BD0222C6AD126E0382C68D0A3
:10077000422C67D04A2CF7D1C6E27A2C7AD006DC1C
:100780005A2C78D0622C09D0682CEDD1A7E1902C9E
:1007900072D0C22C78D0E02CE6D18BE1E048007812
:1007A000022807D0DE480078092803D0DC4800780A
:1007B0000A2801D102F04EFFE7E2D948007802286A
:1007C0000AD1D8480088092802DAD648008800E013
:1007D0000920D449088016E0D1480078082803D0C1
:1007E000CF48007804280ED102F01EF9401ECD49F2
:1007F0000988884202D9CB48008802E002F014F947
:10080000401EC8490880C7480088002803DDC54845
:100810000088401E01E0C3480088C2490880B4E255
:10082000BF480078022812D1BE48008809280ADA99
:10083000BC480088401C07E086E285E1E4E1A3E1D2
:10084000A2E201E240E20920B64908801BE0B44878
:100850000078082803D0B2480078042813D102F0A9
:10086000E3F8401EAF490988884207D9AD4800889F
:10087000401C06E0A8E107E2EFE005E002F0D4F852
:10088000401EA849088080E2A5480078022879D156
:10089000A448008838B9A4480078012803D103206F
:1008A0009F49087069E09F48008801280AD19E4846
:1008B0000078012806D10420994908700020994940
:1008C00008805AE097480088022803D105209449FF
:1008D000087052E093480088032807D192480078B6
:1008E000012803D107208E49087046E08D48008812
:1008F00004280AD18C480078012806D106208849AE
:10090000087000208849087037E08648008805286C
:1009100007D185480078012803D108208049087054
:100920002BE080480088062803D109207C49087004
:1009300023E07C480088072803D10A207849087002
:100940001BE078480088082807D1774800780128FC
:1009500003D10C20724908700FE072480088092802
:1009600008D171480078012804D10C206C49087026
:1009700003E007E00E206A490870694800786B4977
:10098000088069E066480078092803D06448007848
:100990000A2802D101F0CCFE5EE0614800780C2804
:1009A00019D160480088082807D161A202210020DF
:1009B00000F0B0FC01F0E0FE0AE05A480088092887
:1009C00006D15BA20221002000F0A4FC01F0F8FE99
:1009D00001F0AEFE40E0524800780B282ED1FF25F2
:1009E00052480088032806D154495548006801F050
:1009F0004FFE054614E04D480088072806D14F49B0
:100A00004F48006801F0F2FD054609E047480088BC
:100A1000082805D149494A48006801F095FE054675
:100A200010214648FFF707FC0020464908800DB911
:100A30000D2000E00F203A4908700DE0384800789A
:100A4000042809D13748008801F044FF08B90D2077
:100A500000E00F203249087097E131480078032800
:100A600017D02F4800780A2813D02D48007808287E
:100A70000FD02B48007804280BD02948007805288F
:100A800007D0274800780C2803D02548007809288B
:100A900002D101F04DFE0CE0214800780B2808D16E
:100AA00010212648FFF7C7FB00202649088001F0E7
:100AB0003FFE6AE11A4800780B280FD121480088D0
:100AC00010B92048008802E01E480088401E1D49D9
:100AD0000880002019491B4A1288885455E11048A3
:100AE00000780B281AD1174800880F2816DA302012
:100AF0001249144A128888540021104A114800886B
:100B0000401C11540F4800880E2802D10D4800885F
:100B100002E00C480088401C0A49088035E10000CA
:100B2000350A0020360A0020340A0020D40A0020AA
:100B3000706C656173652077616974005C450020A5
:100B4000380A0020D20A0020914800780B281AD1D8
:100B5000904800880F2816DA31208F498D4A128874
:100B6000885400218C4A8B480088401C11548948C5
:100B700000880E2802D18748008802E08548008856
:100B8000401C8449088000E1814800780B281AD174
:100B9000804800880F2816DA32217F487D4A128863
:100BA0008154002102467B480088401C115479483A
:100BB00000880E2802D17748008802E07548008836
:100BC000401C74490880E0E0714800780B281AD175
:100BD000704800880F2816DA33216F486D4A128852
:100BE0008154002201466B480088401C0A54694821
:100BF00000880E2802D16748008802E06548008816
:100C0000401C64490880C0E0614800780B281AD174
:100C1000604800880F2816DA34205F495D4A128840
:100C2000885400215C4A5B480088401C1154594894
:100C300000880E2802D15748008802E055480088F5
:100C4000401C54490880A0E0514800780B281AD174
:100C5000504800880F2816DA35204F494D4A12882F
:100C6000885400214C4A4B480088401C1154494884
:100C700000880E2802D14748008802E045480088D5
:100C8000401C4449088080E0414800780B281AD174
:100C9000404800880F2816DA36203F493D4A12881E
:100CA000885400213C4A3B480088401C1154394874
:100CB00000880E2802D13748008802E035480088B5
:100CC000401C3449088060E0314800780B281AD174
:100CD000304800880F2816DA37202F492D4A12880D
:100CE000885400212C4A2B480088401C1154294864
:100CF00000880E2802D12748008802E02548008895
:100D0000401C2449088040E0214800780B281AD173
:100D1000204800880F2816DA38201F491D4A1288FB
:100D2000885400211C4A1B480088401C1154194853
:100D300000880E2802D11748008802E01548008874
:100D4000401C1449088020E0114800780B281AD173
:100D5000104800880F2816DA39200F490D4A1288EA
:100D6000885400210C4A0B480088401C1154094843
:100D700000880E2802D10748008802E00548008854
:100D8000401C0449088000E000BF00BF00BFDDE454
:100D9000350A0020D20A00205C4500207047000080
:100DA00008B50121082000F0FFFC4FF48070ADF879
:100DB000000010208DF8030003208DF80200694622
:100DC000034800F092F800200249086008BD0000C6
:100DD000000C0140A081214230B5044604254FF4A7
:100DE000302000F06FF80546042D17D10C4800693B
:100DF00040F002000A49086108464461006940F079
:100E0000400008614FF4302000F05CF805460448CB
:100E1000006941F6FD71084001490861284630BD6E
:100E20000020024004200B49C96801F0010109B10A
:100E300001200EE00749C96801F0040109B1022050
:100E400007E00449C96801F0100109B1032000E07E
:100E500004207047002002400348006940F08000F1
:100E600001490861704700000020024070B5044647
:100E70000D460426F00200F025F80646042E11D196
:100E80000948006940F00100074908612580F00227
:100E900000F018F806460448006941F6FE71084063
:100EA00001490861304670BD0020024002480349F4
:100EB00048600348486070472301674500200240AE
:100EC000AB89EFCD00B502460423FFF7ABFF034625
:100ED00003E0FFF7A7FF0346521E012B01D1002AB2
:100EE000F7D102B90523184600BD2DE9F0410246AD
:100EF00000250026002000230024002791F803C0CD
:100F00000CF00F0591F803C00CF0100CBCF1000FB1
:100F100003D091F802C04CEA050591F800C0BCF17D
:100F2000000F31D0146800202BE04FF0010C0CFAB8
:100F300000F3B1F800C00CEA03069E4220D1830002
:100F40004FF00F0C0CFA03F7BC4305FA03FC4CEA14
:100F5000040491F803C0BCF1280F06D14FF0010C36
:100F60000CFA00FCC2F814C00AE091F803C0BCF10E
:100F7000480F05D14FF0010C0CFA00FCC2F810C06C
:100F8000401C0828D1D31460B1F800C0BCF1FF0F99
:100F900034DD546800202EE000F1080C4FF0010809
:100FA00008FA0CF3B1F800C00CEA03069E4221D106
:100FB00083004FF00F0C0CFA03F7BC4305FA03FC57
:100FC0004CEA040491F803C0BCF1280F05D100F1EC
:100FD000080C08FA0CF8C2F8148091F803C0BCF1B0
:100FE000480F07D100F1080C4FF0010808FA0CF87F
:100FF000C2F81080401C0828CED35460BDE8F081B0
:101000000246002093680B400BB1012000E0002055
:101010007047416170470161704700BFFEE710B53E
:1010200002F012FC02F020FB10BD000008B5012107
:10103000082000F0B9FB4FF4F840ADF80000102094
:101040008DF8030003208DF8020069460E48FFF773
:101050004CFF4FF480410C48FFF7DDFF4FF4805107
:101060000948FFF7D8FF4FF400510748FFF7D3FFB7
:101070004FF480610448FFF7CEFF4FF4006102484F
:10108000FFF7C9FF08BD0000000C01400022124B11
:101090001A60124BC3F8B821002117E000F080025B
:1010A00022B101220C4B1B1F1A6003E000220A4BE5
:1010B0001B1F1A600022084B083B1A604206100EE4
:1010C0000122064BC3F8A8214A1CD1B20829E5DB4E
:1010D0000122014B1A607047B081214200802142F9
:1010E0000022134B1A600122124BC3F8B8210021D1
:1010F00017E000F0800222B101220D4B1B1F1A6085
:1011000003E000220A4B1B1F1A600022084B083B19
:101110001A604206100E0122064BC3F8A8214A1C91
:10112000D1B20829E5DB0122014B1A6070470000AB
:10113000B08121420080214230B504460D4645F081
:101140004000FFF7A3FF44F08000FFF79FFF30BD92
:101150002DE9F04F83460F4690461C46DDF824905B
:10116000302C00DD3024E11704EB5171C910A4EBE1
:10117000C10139B12046E11704EB5171C910491C76
:10118000CEB205E02046E11704EB5171C1F3C7066A
:10119000002515E07819C1B25846FFF7CDFF4FF092
:1011A000000A09E099F80000FFF79AFF09F1010928
:1011B0000AF1010000F0FF0AC245F3DB681CC5B26A
:1011C000B542E7DBBDE8F08F10B500210C2000F040
:1011D00057F80021802000F053F8002404E001219A
:1011E000002000F04DF8641CB4F5FC7FF7D310BD6F
:1011F00000B500201949086001F04CFB0120184996
:10120000C1F8B40100201549091F086001F042FB34
:1012100001201349C1F8B00101F03CFB002121205D
:1012200000F02EF80021C82000F02AF80021062046
:1012300000F026F80021132000F022F800212020E1
:1012400000F01EF8FFF7C0FF00210C2000F018F896
:1012500000200249091F086000BD0000B48121423E
:101260000080214230B504460D4645F04000002183
:1012700000F006F844F08000002100F001F830BDD5
:1012800010B50A460023154C23601AB9134C0834D4
:10129000236003E00123114C08342360002117E090
:1012A00000F0800323B101230C4C241F236003E0D2
:1012B00000230A4C241F23600023084C083C2360B1
:1012C0004306180E0123064CC4F8A8314B1CD9B2B2
:1012D0000829E5DB0123014C236010BDB0812142C8
:1012E0000080214230B50446A4F12000C4B200259C
:1012F0000AE004EB4401064A02EB4101485D01218A
:10130000FFF7BEFF681CC5B2062DF2DB30BD000042
:101310003601002070B505460E4614463146284673
:10132000FFF7A0FF03E02078FFF7DCFF641C2078C4
:101330000028F8D170BD000008B50121042000F09C
:1013400033FA4FF4C060ADF8000010208DF80300B0
:1013500003208DF8020069460448FFF7C6FD00200F
:10136000034908600349C1F8A80108BD000801400D
:10137000A4012142000021421CB500246846FEF76A
:10138000EBFF30E001F044FB0446022C03D0092CB3
:1013900001D00A2C08D142F2107269461248006846
:1013A00002F04CFF054607E04FF0FF3269460E4859
:1013B000006802F043FF0546012D0FD19DF80000A3
:1013C000012803D10198FFF7B9F909E09DF8000061
:1013D000022805D10198FFF733F901E002F03AF94C
:1013E0006846FEF7B9FFCDE71000002010B50446AF
:1013F000412C24D108210846FEF7A0FF3D211120F1
:1014000001F008F88621172001F004F87F2126203A
:1014100001F000F81E212D2000F0FCFF00212C20FF
:1014200000F0F8FF8D212A2000F0F4FF3E212B2050
:1014300000F0F0FF022001F038FA00F047F810BD8C
:1014400000BFFEE77047000070B5002100230F22A7
:10145000C47804B3154C246804F4E064C4F5E06473
:10146000210AC1F10403CA40447804FA03F18478E4
:101470001440214309010E4C0678A155047804F06C
:101480001F050124AC4005786D11AD0005F1E02584
:10149000C5F8004109E0047804F01F050124AC40C0
:1014A000044D0678761145F8264070BD0CED00E03D
:1014B00000E400E080E100E002490143024A1160DB
:1014C000704700000000FA050CED00E010B5142094
:1014D00000F07AF9044604F0030018B9032114203F
:1014E00000F05BFB10BDF0B587B005460027082172
:1014F0000846FEF723FF00210D2000F08BFF80211E
:101500000E20FEF71BFF93208DF8080020208DF899
:10151000090001A802AB022202A900900C2000F0F1
:101520001AF8064686B9002407E002A8005D28558F
:1015300002A8005D4740601CC4B2042CF5DB02A881
:10154000005DB84200D0022680210E2000F025FB6D
:10155000304607B0F0BD2DE9FE4F0646884691465D
:101560009A46DDF830B002200290002001900090F1
:101570000C2E06D00E2E09D11220019010200090C2
:1015800005E0772001903020009000E000BF00BF10
:10159000019840F08001022000F03CFF80210420EF
:1015A000FEF7CCFE0021012000F034FF80210A204C
:1015B00000F0F3FA002505E018F80510092000F006
:1015C00029FF6D1C4D45F7D33146012000F022FF65
:1015D0000C2E03D180210D2000F0DFFA4FF47A7534
:1015E00000BF042000F0F0F804466D1E35B104F091
:1015F000010018B9009820400028F2D080210D2069
:10160000FEF79CFE95B3062000F0DEF800F01B000C
:1016100068BB002002900198204000F0010008B152
:10162000012002900C2E24D10A2000F0CDF80446AF
:101630000C2000F0C9F800F007072FB1601E07EB7F
:10164000C000CBF8000002E0E000CBF8000004B9D5
:101650000124122C00DD1224002505E0092000F0F1
:10166000B3F80AF805006D1CA542F7D301E002208B
:10167000029080210C2000F090FA0021012000F05F
:10168000C9FE0298BDE8FE8F70B588B005460C46CD
:1016900008210846FEF752FE07210D2000F0BAFE91
:1016A0000321142000F079FA8DF80C5002A803AB46
:1016B000012203A900900C20FFF74DFF06464EB90A
:1016C0000298102806D19DF80C0020709DF80D009E
:1016D000607000E00226304608B070BD10B50121F0
:1016E0001D48FFF798FC012001F0DFF801211A489E
:1016F000FFF78FFC012001F0D8F801211648FFF711
:101700008AFC012001F0D1F80F21012000F082FEB7
:1017100000BF012000F058F800F010000028F8D1B8
:10172000012001F0C2F83D21112000F073FE1E21BE
:101730002D2000F06FFE00212C2000F06BFE8D218B
:101740002A2000F067FE3E212B2000F063FE40219E
:10175000152000F05FFE10BD000C014010B500F038
:10176000E7F801210648FFF756FC10210548FFF76E
:1017700052FCFFF7B3FF4120FFF738FE10BD000019
:10178000000C01400008014029B1064AD269024319
:10179000044BDA6104E0034AD2698243014BDA6107
:1017A000704700000010024029B1064A92690243C6
:1017B000044B9A6104E0034A92698243014B9A61A7
:1017C000704700000010024070B504467E2000EA19
:1017D000440040F0800510210748FFF71AFC284616
:1017E00000F016F900F0EEF8064610210248FFF767
:1017F00012FC304670BD00000008014000B589B001
:1018000001210820FFF7D0FF01210420FFF7BCFFD2
:101810004FF40070ADF8200028208DF8230003203D
:101820008DF8220008A92248FFF75FFB4FF40071F2
:101830001F48FFF7F0FB42F21070ADF8140047208C
:10184000ADF810000020ADF81600ADF8120004A9A4
:10185000184800F017FD0C20ADF804000020ADF88A
:1018600006000120ADF808000020ADF80A000320B2
:10187000ADF80C0001A90F4800F06AFC01210D48E9
:1018800000F045FC1E208DF81C0001208DF81D0085
:1018900003208DF81E0001208DF81F0007A8FFF718
:1018A000D3FD01221121034800F0A8FC09B000BDBE
:1018B000000C01400008004010B50020194B1B78B7
:1018C00003F040036BB3184B1B68190E164B1B68D3
:1018D000C3F30742D343DBB28B420BD151B9124B56
:1018E0001B88C3F30721104B1A78D343DBB28B421A
:1018F00000D1084600BF28B10A4B1B7803F08003D3
:10190000002BF8D120B1074B1B7803F0800343B9BB
:10191000044B1B7823F04003024C23700023034C3C
:10192000237010BD600300206403002068030020C2
:1019300008B501210C20FFF737FF1020ADF800009B
:101940008DF8030003208DF8020069461B48FFF75D
:10195000CCFA2020ADF8000010208DF80300032001
:101960008DF8020069461548FFF7BFFA4020ADF830
:10197000000004208DF8030003208DF80200694662
:101980000E48FFF7B2FA8020ADF8000010208DF865
:10199000030003208DF8020069460848FFF7A5FA06
:1019A0000120ADF8000010208DF8030003208DF811
:1019B000020069460248FFF798FA08BD0008014096
:1019C000000C014070B500251CE06006040E2021CB
:1019D0000E48FFF71EFB142000F067FF40210B4864
:1019E000FFF70EFB012801D144F00104142000F0A0
:1019F0005CFF20210548FFF70EFB142000F055FF87
:101A0000681CC5B2082DE0DB204670BD000801400F
:101A100070B50446002520E004F0800020B180214C
:101A20000F48FFF7F8FA03E080210D48FFF7F1FABD
:101A3000142000F03AFF20210948FFF7EAFA1420A9
:101A400000F033FF20210648FFF7E5FA142000F0EC
:101A50002CFF6006040E681CC5B2082DDCDB70BDCF
:101A60000008014030B503460C461546002207E049
:101A7000184600F008F824F812009B1C501C82B293
:101A8000AA42F5DB30BD0146088870472DE9F05FBA
:101A900080468A461746B8F1006F02D33348804526
:101AA00001D3BDE8F09FFFF701FAA8F1006B4FEA00
:101AB0009B25CBF34809C9F50074A74200DC3C46DE
:101AC0004DE04FF0006101EB85208A142849FFF7B3
:101AD000C9FF00260BE009EB0600254931F810008C
:101AE0004FF6FF71884200D003E0701C86B2A64218
:101AF000F1DB00BFA6421BDA4FF0006101EB85204D
:101B0000FFF76AF9002608E03AF8160006EB09012B
:101B1000174A22F81100701C86B2A642F4DB4FF07F
:101B2000006101EB85208A14114900F023F804E0DC
:101B300022465146404600F01DF8A74200D10FE072
:101B40006D1C4FF000090AEB440AA044381B87B211
:101B5000B7F5007F02DD4FF4007400E03C46B0E7CB
:101B600000BFFFF779F900BF9BE700000000010804
:101B7000A00B00202DE9F04105460E461746002433
:101B800007E036F814102846FFF770F9AD1C601C0A
:101B900084B2BC42F5DBBDE8F08170B505460C4669
:101BA0002846FFF711FE064646EA0401284600F0E3
:101BB00031FC70BD10B500F001F810BD0CB500206F
:101BC000019000903348006840F48030314908604B
:101BD00000BF3048006800F4003000900198401CBD
:101BE0000190009818B90198B0F5A06FF1D129487B
:101BF000006800F4003010B10120009001E00020E6
:101C000000900098012843D12348006840F010005C
:101C1000214908600846006820F003000860084673
:101C2000006840F0020008601A484068194948609E
:101C30000846406848600846406840F48060486054
:101C40000846406820F47C1048600846406840F42C
:101C5000E81048600846006840F08070086000BFE7
:101C60000C48006800F000700028F9D0094840686E
:101C700020F00300074948600846406840F0020031
:101C8000486000BF0348406800F00C000828F9D104
:101C90000CBD0000001002400020024010B500BF43
:101CA000502080F31188BFF34F8FBFF36F8F00BFB9
:101CB00002F006FC18B14FF080500449086000BFE4
:101CC000002080F3118800BF10BD000004ED00E08B
:101CD00010B51348006840F001001149086008463B
:101CE0004068104908400E494860084600680E499F
:101CF00008400B4908600846006820F4802008600E
:101D00000846406820F4FE0048604FF41F008860D9
:101D1000FFF750FF4FF000600449086010BD00005D
:101D2000001002400000FFF8FFFFF6FE08ED00E0A3
:101D3000F0B50C46154600220021068C4FF6FE77C2
:101D40003E400684028B018C4FF60C7632407E1C9E
:101D500006EA03162E433243104EB0420ED0104E08
:101D6000B0420BD0B0F1804F08D00E4EB04205D03B
:101D70000D4EB04202D00D4EB04206D14FF6FD7668
:101D8000314044F00106314305E04FF6F57631402D
:101D900044F00106314302830184F0BD002C014070
:101DA000003401400004004000080040000C0040E6
:101DB000F0B50C461546002200210026078C4FF690
:101DC000EF7C07EA0C070784028B018C4FF6FF7744
:101DD00007EA041640F6FF473A404FF6FF7707EA56
:101DE00003373A434FF6FF7707EA05273A43114F87
:101DF000B8420ED0104FB8420BD0B0F1804F08D08F
:101E00000E4FB84205D00E4FB84202D00D4FB84227
:101E100006D14FF6DF77394046F01007394305E029
:101E20004FF65F77394044F010073943028301844D
:101E3000F0BD0000002C01400034014000040040CF
:101E400000080040000C0040F0B50C46154600228A
:101E500000210026078C4FF6FF6C07EA0C07078469
:101E6000828B018C4FF6FF7707EA04264FF60C773A
:101E70003A404FF6FF7707EA03172F433A43114FD3
:101E8000B8420ED0104FB8420BD0B0F1804F08D0FE
:101E90000E4FB84205D00E4FB84202D00D4FB84297
:101EA00006D14FF6FF57394046F48077394305E0B5
:101EB0004FF2FF57394044F48077394382830184DD
:101EC000F0BD0000002C014000340140000400403F
:101ED00000080040000C0040F0B50C4615460022FA
:101EE00000210026078C4EF6FF7C07EA0C070784CA
:101EF000828B018C4FF6FF7707EA043640F6FF47E6
:101F00003A404FF6FF7707EA05273A434FF6FF7747
:101F100007EA03373A43114FB8420ED0104FB84288
:101F20000BD0B0F1804F08D00E4FB84205D00E4F05
:101F3000B84202D00D4FB84206D14DF6FF77394076
:101F400046F48057394305E047F6FF57394044F4DB
:101F50008057394382830184F0BD0000002C01408A
:101F6000003401400004004000080040000C004024
:101F700010B501215E4800F0DAF8F8B15D4800784C
:101F800000F08000D0B15B48007820F01000594983
:101F900008700846007800F00F0020B90846007865
:101FA00040F0400008705348007800F00F000E2801
:101FB00005DA50480078401C4E4908700AE04D4848
:101FC000007820F080004B4908700846007800F047
:101FD000F00008701021464800F0A9F8002810D041
:101FE0004548006870B10221414800F010F9002115
:101FF0003F4800F019F93F48007840F010003D4993
:10200000087070E03A4800F08EF83C4908800021E2
:10201000374800F0FCF83748007800F0100000283E
:102020005BD03448007800F08000E8B33348008883
:10203000B0F5967F0DDD31480088B0F5487F08DAAD
:102040002F48006840002E49086008460068086074
:1020500043E02A480088B0F5AF6F0FDD27480088BD
:10206000B0F5E16F0ADA26480068400024490860AC
:102070000846006840F0010008602EE01F48008814
:1020800040F69801884228DD1C48008840F6282147
:10209000884222DA1B480078401C1A49087015480B
:1020A000007800F0F00000E002E01249087014E04F
:1020B0001248008841F2680188420EDD0F4800880E
:1020C00041F25C21884208DA0A48007840F080003A
:1020D0000849087000200B4908700648007820F075
:1020E0001000044908701121014800F00DF810BDDE
:1020F0000008004060030020248121426203002088
:102100006403002068030020CA430282704721B1A3
:10211000028842F00102028004E002884FF6FE735A
:102120001A40028070470146B1F84000704730B550
:102130000246002000230024158A05EA0103958940
:1021400005EA010413B10CB1012000E0002030BD0C
:1021500070B505460C46244885420ED0234885427A
:102160000BD0B5F1804F08D02148854205D02148D9
:10217000854202D02048854200D100E000BF20887F
:1021800050B92389A28861882846FFF7D1FDE188EC
:10219000284600F04BF825E0208804280AD123893E
:1021A000A28861882846FFF703FEE188284600F0F0
:1021B00046F817E0208808280AD12389A288618878
:1021C0002846FFF741FEE188284600F045F809E07F
:1021D0002389A28861882846FFF77EFEE188284689
:1021E00000F043F870BD0000002C014000340140B5
:1021F0000004004000080040000C00401AB1838930
:102200000B43838102E083898B43838170470A46B5
:102210000021018C4DF6FF7319404FF6FF7303EA5E
:10222000023319430184704781847047028B4FF653
:10223000F3731A400283028B0A4302837047028BB6
:102240004FF2FF331A400283028B4FF6FF7303EA0B
:1022500001231A4302837047828B4FF6F3731A40AF
:102260008283828B0A4382837047828B4FF2FF33D3
:102270001A408283828B4FF6FF7303EA01231A43CD
:1022800082837047002202881D4B98420ED01D4B5E
:1022900098420BD0B0F1804F08D01B4B984205D02C
:1022A0001A4B984202D01A4B984204D14FF68F73C2
:1022B0001A404B881A43174B984207D0164B984246
:1022C00004D04FF6FF431A40CB881A4302808B8814
:1022D00083850B8803850A4B98420BD0094B9842A3
:1022E00008D00E4B984205D00D4B984202D00D4BB2
:1022F000984201D10B7A0386012383827047000044
:10230000002C01400034014000040040000800405F
:10231000000C00400010004000140040004001404C
:10232000004401400048014010B540F225511D48CD
:1023300000F03EF810B31B4800F064F8C4B21A482D
:10234000008800F40040C8B91748008800F48040B5
:1023500060B10A2C03D000201349088020E0124805
:10236000008840F400401049088019E00D2C06D187
:102370000D48008840F480400B49088010E00A486E
:102380000088C0F30D0009490C5407480088401C20
:102390000549088008460088C72801DD002008801C
:1023A00010BD0000003801402C000020D80A002099
:1023B00070B50246002400230025002040F66A166E
:1023C000B14200D100BFC1F3421501F01F03012645
:1023D00006FA03F3012D02D19689334006E0022D5F
:1023E00002D1168A334001E0968A33400C1201264E
:1023F00006FA04F41688344013B10CB1012000E051
:10240000002070BD01468888C0F30800704700BFF7
:10241000FEE7000070B504460D467E2000EA440643
:1024200010210748FEF7F5FD3046FFF7F1FA284680
:10243000FFF7EEFA10210248FEF7EDFD70BD000037
:10244000000801400FB4084B10B504A902AA039874
:1024500000F01CF8044602A9002000F0C1F8204654
:1024600010BC5DF814FB0000E125000802E008C87C
:10247000121F08C1002AFAD170477047002001E0FE
:1024800001C1121F002AFBD1704700002DE9FF4F48
:1024900089B09B460446002506E025280BD05A4605
:1024A0000B999047641C6D1C20780028F5D10DB065
:1024B0002846BDE8F08F0027B8460122474900E0D2
:1024C000074314F8013F203B02FA03F00842F7D11A
:1024D00020782E2819D114F8010F47F004072A2874
:1024E0000ED06FF02F022078A0F1300109290CD80E
:1024F00008EB880102EB410100EB0108641CF2E7E4
:102500000A98641C50F8048B0A9020780028CED0DA
:10251000642808D0692806D075281ED05A460B9921
:1025200090476D1C58E00A994FF00A0901C90A91B9
:10253000002802DA40422D2102E0390504D52B2182
:102540008DF82010012103E0F90704D02021F7E7DE
:102550008A4608AE0DE00021FAE70A994FF00A0911
:1025600001C90A91F7E74946FDF770FE303106F8D8
:10257000011D0028F7D1ADEB060000F12009780716
:1025800001D44FF00108C84502DDA8EB090000E0C6
:1025900000208046002706E008A85A46C05D0B9937
:1025A00090476D1C7F1C5745F6DB04E030205A46EF
:1025B0000B9990476D1CB8F10001A8F10108F5DCFA
:1025C00005E016F8010B5A460B9990476D1CB9F1BE
:1025D0000001A9F10109F4DC641C65E70928010088
:1025E0000A68531C0B601070704700002DE9F04121
:1025F00005460E46012723484068102802D3384676
:10260000BDE8F081002437E01E48C06830F834008F
:1026100080BB1C48C06800EBC40045604FF6FF70EB
:1026200000EA04101749C96801EBC4014880012081
:102630001449C96821F8340012484068401C114907
:1026400048600222091D1048FFF720FA0D4AD2689F
:1026500002EBC4010C4A0C3202EBC4000422FFF767
:1026600015FA0A4901EB041008223146FFF70EFA69
:10267000002703E0FFE7641C102CC5DB00BF3846D1
:10268000BEE700004C4500200480000800A00008C0
:102690002DE9F04105460E46012722480068FF2833
:1026A00002D93846BDE8F081002436E01D48806834
:1026B00030F8340078BB1B48806800EBC4004560EC
:1026C0004FF6FF7000EA04101649896801EBC40157
:1026D000488001201349896821F8340011480068B6
:1026E000401C1049086002220F48FFF7CFF90D4A3D
:1026F000926802EBC4010C4A903202EBC40004223F
:10270000FFF7C4F9094901EB041008223146FFF72D
:10271000BDF9002703E0FFE7641CFF2CC6DD00BF06
:102720003846BFE74C4500200080000800B0000894
:102730000220034908700020024908807047000009
:10274000350A0020360A002070B505460E46284698
:1027500000F03EF90446601C48B10649896801EB67
:10276000C4014888314601F06BFB002070BDFF209A
:10277000FCE700004C45002010B500240FE00020CD
:102780000D49C96821F834000B4AD26802EBC40134
:102790000A4A02EBC4000122FFF778F9641C102CEE
:1027A000EDDB0020044948600222091D03480C3873
:1027B000FFF76CF910BD00004C45002010800008A8
:1027C00010B500240FE000200C49896821F834007E
:1027D0000A4A926802EBC401094A02EBC4000122D2
:1027E000FFF754F9641CFF2CEDDD0020034908605D
:1027F000022203489038FFF749F910BD4C450020EC
:10280000908000081CB50446FDF774FD14480421AF
:102810000023CA01CDE9001012A1134801F00AFEFD
:102820001248042100238022CDE9001010A1124893
:1028300001F000FE11480A2100238022CDE900109A
:102840000FA1114801F0F6FD00220821012001F03E
:102850007FFB0E4908600E48006801F08FF91CBD2F
:10286000040000204C4344007913000808000020B5
:1028700072656D6F74650000253600080C0000203D
:102880007263353232000000C935000810000020A4
:102890000000002008B50B20009002E00098401EC8
:1028A000009000980028F9D108BD0CB500210191D5
:1028B0000BE00B21009102E00099491E0091009964
:1028C0000029F9D10199491C019101998142F0D364
:1028D0000CBD000070B505461B480068A84201D237
:1028E000012070BD0026002425E01748806830F8DC
:1028F000340000B91EE03046761CA84219D10020F1
:102900001149896821F834000F480068401E0E49BB
:10291000086002220D48FFF7B9F80B4A926802EBF3
:10292000C4010B4A02EBC4000122FFF7AFF80020FC
:10293000D7E700BF641CFF2C03DC03480068B042EB
:10294000D3D80120CDE700004C45002000B000089E
:102950009080000870B505460E462C4610E00B48E6
:10296000806830F83400012809D10849896801EBF2
:10297000C4014888314600F049FE204670BD641C01
:10298000FF2CECDD4FF0FF30F8E700004C45002055
:1029900001460022002010E00C4BDB6833F8303099
:1029A00003B909E0521C094BDB6803EBC0035B6809
:1029B0008B4200D1704700BF401C102803DA034B44
:1029C0005B689342E8D84FF0FF30F3E74C450020B6
:1029D00001460022002010E00C4B9B6833F8303099
:1029E00003B909E0521C094B9B6803EBC0035B6809
:1029F0008B4200D1704700BF401CFF2803DC034B13
:102A00001B689342E8D84FF0FF30F3E74C450020B5
:102A10000148007870470000350A002001484068EE
:102A2000704700004C4500200148006870470000D6
:102A30004C4500201CB508480A2100234FF4807241
:102A4000CDE9001005A1074801F0F4FC01F05AF9A6
:102A5000FDF750FC00BFFEE70000002063726561D7
:102A600074000000052800082DE9F04105460E46D7
:102A70002048076820480068001D00F003FF681C1C
:102A8000D8B9D6B11D4948681B49096888601A49F8
:102A900082680968CA6018490968091D826851601E
:102AA00015490968091D8160144A134909684A617A
:102AB00011460968491C11601AE07C190E4800682B
:102AC0004460BC4207D20C480168091D0C480068EC
:102AD00000F0FCFE0CE008480168091D0948006888
:102AE00000F0F4FE08480068844201D20648046001
:102AF000BDE8F081C8090020B4090020901400202E
:102B0000BC090020B8090020E409002010B50446E3
:102B100000F002FF30480068401C2F4908602F4831
:102B2000006840B92D4804600846006801280DD1AE
:102B300000F000FA0AE02A48006838B9274800681F
:102B4000C06AE16A884201D82448046025480068C8
:102B5000401C244908600846006860642249E06A15
:102B60000968884202D92049E06A0860E16A01EBFD
:102B700081011E4A02EB81014868A0608268E26020
:102B8000211D826851608160E16A01EB8101174A71
:102B900002EB81026261E16A01EB8101134A52F8A2
:102BA0002110491CE26A02EB8202104B43F822100A
:102BB00000F0DCFE0A48006868B108480068C06A96
:102BC000E16A884207D24FF0805009490860BFF39C
:102BD0004F8FBFF36F8F10BDC4090020B4090020D0
:102BE000D0090020E0090020CC090020E00F0020DF
:102BF00004ED00E010B500F08FFE10480068D0B979
:102C00000F4800F053FE0F4800F050FE0C480E49EC
:102C100008600C480D490860002210210A2001F0CC
:102C200097F9064908600846006820B108A10348E2
:102C3000006800F01FFF00F099FE10BDFC090020A5
:102C4000A4140020B8140020F4090020F809002082
:102C5000546D72510000000010B516E000F05CFEEB
:102C60000C48C068C468201D00F00CFE0A480068CB
:102C7000401E0949086009480068401E074908606D
:102C800000F074FE204600F05FF804480068002859
:102C9000E4D110BD7C140020C4090020C00900202C
:102CA00070B504460D46206C70B1216CE06801449B
:102CB000E160D4E90210884201D32168E16028462E
:102CC000226CE168FDF79EFA70BD2DE9F0410446E3
:102CD0000F4615464FF00008A66B206C48B92068D7
:102CE00000282CD1A06801F0C7FC80460020A0601D
:102CF00025E07DB93946226C6068FDF783FA216CC6
:102D0000606808446060D4E90101884217D32068F4
:102D1000606014E03946226CE068FDF773FA216CBC
:102D2000E068411AE1602168E068884203D2216CC2
:102D3000A068411AE160022D01D106B1761E701C17
:102D4000A0634046BDE8F08110B50446206B00F05A
:102D50002BFE204600F028FE10BD00000146084A68
:102D6000126812680AB9012200E000220A600A68AB
:102D700022B9034A1268D268106800E00020704748
:102D8000F409002030B54FF42053174800F0070431
:102D90002CB1C01D20F00700134C041B1B1B024666
:102DA000124C22600024114D6C60D018083820F0BD
:102DB00007000F4C206000240D4D2D686C600C4DF9
:102DC0002D682C601146441A4C60094C24680C6034
:102DD000084D4C682C60084D4C682C604FF0004446
:102DE000064D2C6030BD0000CC140020080A0020E5
:102DF000100A0020180A0020140A0020240A0020CB
:102E000000BFFFF729FF064800680128F9D94FF0F5
:102E1000805004490860BFF34F8FBFF36F8FF0E716
:102E2000E00F002004ED00E02DE9F04106460D46DC
:102E300017469846069C0DB9246000E02760E663BB
:102E400025640121204601F0B7F884F84C80BDE8E4
:102E5000F0812DE9F05F82460F4690469B460A9E20
:102E60000C9C4FEA8801A522206BFDF7DDF9A8F143
:102E70000100216B01EB800929F0070909F0070027
:102E800008B9012000E0002050B900BF502080F3B5
:102E90001188BFF34F8FBFF36F8F00BF00BFFEE7F6
:102EA00087B1002507E0795D04F134004155785D74
:102EB00000B902E06D1C102DF5D300BF00214320A6
:102EC000015502E0002084F83400382E01D20120A0
:102ED00000E0002050B900BF502080F31188BFF3FC
:102EE0004F8FBFF36F8F00BF00BFFEE7382E00D3B8
:102EF0003726E662E66400202065201D00F0E3FC32
:102F000004F1180000F0DFFC2461C6F13800A06174
:102F100064620020606584F858005A46514648466D
:102F200000F040FB20600B9808B10B980460BDE8EE
:102F3000F09F000010B5002407E004EB84010F4A65
:102F400002EB810000F0B2FC641C382CF5D30C4875
:102F500000F0ACFC0B4800F0A9FC0B4800F0A6FC0C
:102F60000A4800F0A3FC0A4800F0A0FC0448094904
:102F7000086004480849086010BD0000E00F002008
:102F80004014002054140020681400207C140020F9
:102F900090140020B8090020BC09002010B501469B
:102FA000164800E0006803688B42FBD30246436882
:102FB00013448B4204D143684C6823444360014668
:102FC0000A464B6813440468A34211D10C4C0368B1
:102FD0002468A34208D04B680468646823444B60AB
:102FE00003681B680B6005E0054B1B680B6001E084
:102FF00003680B60884200D0016010BD080A002001
:10300000100A00202DE9F04104460D4616461F46E1
:103010004FF0000865602461B5420CD8F01BA1692F
:10302000884202D34FF0010811E0211D09480068D1
:1030300000F04CFC0BE0BE4204D2BD4202D34FF084
:10304000010804E0211D0448006800F03FFC4046F0
:10305000BDE8F081F8090020F409002070B50546AC
:1030600000F05AFCA86B08B9012400E0002400F02D
:103070007DFC204670BD70B5054600F04DFCA86B88
:10308000E96B884201D1012400E0002400F06EFCCD
:10309000204670BD70B505460E460E480068C068F3
:1030A000C468201D00F0EEFB94F8280000F0040036
:1030B00028B132462946204600F0EEF805E094F8A3
:1030C000280020F0010084F828002046216A884763
:1030D00070BD0000F409002070B586B094E002983D
:1030E000002811DA03AE56B900BF502080F31188D2
:1030F000BFF34F8FBFF36F8F00BF00BFFEE7D6E96E
:103100000020B168904700BF029800287CDB049C37
:10311000606908B9012000E0002010B9201D00F00E
:10312000B1FB01A800F0E4F8054602980A2869D22C
:10313000DFE800F06805072E365806082F3700BF75
:1031400000BF00BF94F8280040F0010084F8280078
:103150000398A269811803462A462046FFF752FFCA
:10316000A8B194F8280000F0040038B10398A269CF
:1031700081182A46204600F08FF805E094F82800D0
:1031800020F0010084F828002046216A88473AE0B0
:1031900000BF94F8280020F0010084F8280032E0F5
:1031A00000BF94F8280040F0010084F8280003983C
:1031B000A061A06908B1012000E0002050B900BF63
:1031C000502080F31188BFF34F8FBFF36F8F00BF84
:1031D00000BFFEE7A06941192B462A462046FFF7AB
:1031E00011FF10E094F8280000F0020018B9204602
:1031F00000F0DAFB05E094F8280020F0010084F8E4
:10320000280000E000BF00BF002202A904480068B7
:1032100001F014F800287FF462AF06B070BD000022
:10322000FC090020F8B505460C4600F0B9FD6846DB
:1032300000F05EF80646009820BB44B9B54206D8B7
:1032400001F016FB31462846FFF724FF1CE03CB195
:103250000E480068006808B9012000E0002004461C
:10326000A91B22460A48006800F034FC01F000FB6C
:1032700050B94FF0805007490860BFF34F8FBFF33C
:103280006F8F01E001F0F4FAF8BD0000F8090020AA
:10329000FC09002004ED00E070B504460D4616461A
:1032A00004E0A06905442046216A8847A0694119C5
:1032B0002B4632462046FFF7A5FE0028F1D170BD0F
:1032C00009480068006808B9012000E0002020B12A
:1032D0004FF0FF300549086005E003480068C0680A
:1032E0000068024908607047B8090020E40900201E
:1032F00070B5044601F0DEF80546074800688542CF
:1033000004D200F00BF80120206001E000202060D2
:1033100001480560284670BD040A002070B508E029
:103320000D480068C06804684FF0FF312046FFF781
:10333000B1FE09480068006808B9012000E00020DB
:103340000028EDD004480568044800680249086078
:103350000248056070BD0000F4090020F809002053
:103360000E480068401C08B9012000E0002050B958
:1033700000BF502080F31188BFF34F8FBFF36F8FD2
:1033800000BF00BFFEE700BF502080F31188BFF3ED
:103390004F8FBFF36F8F00BF00BFFEE7280A0020EA
:1033A00008B500BF6846FFF7D9FC044620460099DF
:1033B000FFF738FFFFF790FEF4E770B5044600F022
:1033C000ABFA94F9455010E0606A08B9012000E0BA
:1033D000002038B904F1240001F0BAF918B100F066
:1033E0003DFC00E003E0681E45B2002DECDC00BFB0
:1033F000FF2084F8450000F0B9FA00F08DFA94F946
:10340000445010E0206908B9012000E0002048B9CC
:1034100004F1100001F09CF908B100F01FFC681ED7
:1034200045B200E001E0002DECDC00BFFF2084F895
:10343000440000F09BFA70BD2DE9F04104464FF0C6
:10344000000800F0ADFC5148006808B9FFF79AFC8D
:103450004F480068204000287ED13CB304F10800AA
:10346000A04223D9083404F0070000B304F0070099
:10347000C0F108002044A04216D904F00700C0F1B2
:103480000800044404F0070008B9012000E000200F
:1034900068B900BF502080F31188BFF34F8FBFF38E
:1034A0006F8F00BF00BFFEE7002400E00024002C67
:1034B00054D038480068844250D8374E30460568AA
:1034C00001E02E462D686868A04202D228680028D4
:1034D000F7D12E480068854240D0306800F10808D6
:1034E000286830606868001B102819D92F1907F068
:1034F000070008B9012000E0002050B900BF5020AB
:1035000080F31188BFF34F8FBFF36F8F00BF00BFF1
:10351000FEE76868001B78606C603846FFF73EFD88
:103520001C4968680968081A1A4908600846006852
:103530001A490968884203D216480068174908608A
:1035400013496868096808436860002028601448C7
:103550000068401C124900E000E0086001F088F9B2
:1035600008F0070008B9012000E0002050B900BFB2
:10357000502080F31188BFF34F8FBFF36F8F00BFD0
:1035800000BFFEE74046BDE8F0810000100A0020C1
:10359000240A0020140A0020080A0020180A00202B
:1035A0001C0A0020001F4FF080730360001F21F0F1
:1035B00001030360001F034B0360143802602038CE
:1035C00070470000613300081FB5002003900220FF
:1035D0008DF8000016E00224642000F0A1FA02A990
:1035E0005220FEF751F818B903A8FDF77CFF0446F6
:1035F00044B90398019000231A46694602480068BE
:1036000000F048FDE7E700001000002070B5044618
:103610000D460349601808222946FEF723FA70BDBB
:1036200000B000081CB501208DF800000EE032202B
:1036300000F076FAFEF740F904463CB1019400230D
:103640001A4669460248006800F024FDEFE70000D2
:1036500010000020002002490870024908807047CD
:10366000350A0020360A002070B50C480C49C860A5
:103670000222091D0B48FEF7F5F9084D002409E068
:1036800008490C3101EBC40004222946FEF7EAF98F
:103690000835641C102CF3DB70BD0000CC44002006
:1036A0004C450020048000087FB521480088062191
:1036B00090FBF1F000EB40004FF6FF7101EA40058E
:1036C00000261C480088A84200D10DBB002405E05C
:1036D00069463046FFF73EF9461C641CAC42F7DBF6
:1036E00000240EE0144800EB04113046FFF732F9D5
:1036F000461C114800EB0412E1B20020FDF70AFE5F
:10370000641C062C04DAFFF78FF9401BA042E9D8AD
:103710000848058006480088062190FBF1F201FB6D
:103720001200C4B205A221464720FDF7F3FD7FBD7C
:10373000360A0020D60A00206C4500203C0000001C
:1037400070B5044600BF1C480088062190FBF1F0CC
:10375000002805DD062094FBF0F100FB1140C4B207
:10376000062C01DD062000E02046044612480088B1
:10377000062190FBF1F000EB40004006060E00250C
:1037800009E07019C0EB00100C4BC218E9B2002020
:10379000FDF7C0FD6D1CA542F3DB0748008806213C
:1037A00090FBF1F201FB1200C5B205A229464720A9
:1037B000FDF7B0FD70BD0000360A00203C0A002075
:1037C0003C0000001FB5FFF72FF90446224610A168
:1037D0006846FEF737FE6A4601210020FDF79AFD94
:1037E000FFF71CF9044622460CA16846FEF72AFEA4
:1037F0006A4602210020FDF78DFD0BA20321002067
:10380000FDF788FD0CA204210020FDF783FD1FBDFC
:10381000557365724E756D3A25640000526F6F7472
:103820004E756D3A25640000446174613A3230325D
:10383000332D362D31370000566572736F6E3A5650
:1038400020312E310000000070B50B480B49886014
:1038500002220B48FEF706F9074D002409E008494B
:10386000903101EBC40004222946FEF7FBF808352D
:10387000641CFF2CF3DD70BDCC3C00204C450020C7
:103880000080000801460A69D1E901309860D1E959
:10389000010358605068884201D188685060002058
:1038A00008611068401E10601068704700F1080140
:1038B00041604FF0FF31816000F10801C16001619A
:1038C00000210160704700210161704710B5024678
:1038D0000B685C1C0CB9106907E002F1080000E0FD
:1038E0004068446824689C42FAD944684C604C683B
:1038F000A160886041600A611468641C146010BD96
:1039000042684A6093688B6093685960916008616F
:1039100003685B1C0360704700BF502080F3118870
:10392000BFF34F8FBFF36F8F00BF0E480068401C7E
:103930000C49086008460068012812D10A4800684E
:10394000C0B208B9012000E0002050B900BF5020EB
:1039500080F31188BFF34F8FBFF36F8F00BF00BF9D
:10396000FEE77047280A002004ED00E00D480068DB
:1039700050B900BF502080F31188BFF34F8FBFF3C1
:103980006F8F00BF00BFFEE706480068401E054974
:1039900008600846006820B9002080F3118800BF45
:1039A00000BF7047280A002070B506463546002E35
:1039B00044D0083D2C46224960680968084008B197
:1039C000012000E0002050B900BF502080F3118892
:1039D000BFF34F8FBFF36F8F00BF00BFFEE72068BC
:1039E00008B9012000E0002050B900BF502080F34A
:1039F0001188BFF34F8FBFF36F8F00BF00BFFEE78B
:103A00000F49606809680840C0B12068B0B90C4926
:103A1000606809688843606000F0C2F9094960681D
:103A200009680844074908602046FFF7B7FA0648C6
:103A30000068401C0449086000F01AFF70BD0000D7
:103A4000240A0020140A0020200A002000204FF041
:103A5000E02108618861064800684FF47A71B0FB84
:103A6000F1F0401E4FF0E0214861072008617047E7
:103A70001400002030B502460B46002152B900BFA9
:103A8000502484F31188BFF34F8FBFF36F8F00BFB3
:103A900000BFFEE7BBB1002012E00D4C04EBC004F8
:103AA0006468944203D10A4C04EBC0010AE031B9C6
:103AB000074C54F8304014B9054C04EBC001401CCD
:103AC0000828EAD300BF09B10B604A6030BD00008E
:103AD000A00F00202DE9F04105460E4617462C4662
:103AE000FFF71AFF94F94400401C10B9002084F835
:103AF000440094F94500401C10B9002084F84500AA
:103B0000FFF734FFA06B28B93A46314604F1240090
:103B100000F0C6F82046FFF750FCBDE8F081000039
:103B200070B504460025D4B11248006808B90120D8
:103B300000E0002050B900BF502080F31188BFF38F
:103B40004F8FBFF36F8F00BF00BFFEE700F028F973
:103B500000212046FEF788FF00F08AFE05463DB9A9
:103B60004FF0805004490860BFF34F8FBFF36F8F51
:103B700070BD0000F009002004ED00E070B50546BE
:103B8000FFF7CAFE15B92748006800E0284604463A
:103B9000201DFFF777FEA06A18B104F11800FFF7A7
:103BA00071FE21480068401C1F4908601D480068DC
:103BB000844209D1211D1D48FFF7A2FE1C48006860
:103BC000401C1B49086009E01A480068401E19495A
:103BD00008602046FFF7B8F8FFF772FBFFF7C6FE54
:103BE00015480068E8B10F480068844219D11348AD
:103BF000006808B9012000E0002050B900BF502043
:103C000080F31188BFF34F8FBFF36F8F00BF00BFEA
:103C1000FEE74FF080500A490860BFF34F8FBFF3B3
:103C20006F8F70BDB4090020E00900207C140020D3
:103C3000C0090020C4090020D0090020F00900209C
:103C400004ED00E003490968016003490968416027
:103C500070470000DC090020C8090020012001494C
:103C600008607047D809002070B504460D4654B965
:103C700000BF502080F31188BFF34F8FBFF36F8FC9
:103C800000BF00BFFEE70548016818312046FFF776
:103C90001DFE01212846FEF7E7FE70BDB409002095
:103CA00070B504460E46154654B900BF502080F347
:103CB0001188BFF34F8FBFF36F8F00BF00BFFEE7C8
:103CC00060680F490968C8610D49826809680A621D
:103CD0000B4909681831826851600949096818312F
:103CE0008160074909688C622168491C21600DB117
:103CF0004FF0FF3629463046FEF7B6FE70BD000095
:103D0000B40900201CB51E4800210B468022CDE9D5
:103D100000101CA11D4800F08DFB0446012C02D1AF
:103D200000F060FE0446012C15D100BF502080F346
:103D30001188BFF34F8FBFF36F8F00BF4FF0FF307D
:103D400013490860012013490860002012490860E7
:103D500000F082F810E0601C08B1012000E00020B3
:103D600050B900BF502080F31188BFF34F8FBFF3CD
:103D70006F8F00BF00BFFEE7084800681CBD000051
:103D8000E809002049444C4500000000012E0008CD
:103D9000E4090020D0090020C8090020EC09002017
:103DA00002480068401C014908607047F009002083
:103DB0001E48006818B101201D49086034E0002049
:103DC0001B4908601B4801680CE051B900BF502036
:103DD00080F31188BFF34F8FBFF36F8F00BF00BF19
:103DE000FEE7491E01EB8100134A52F8200008B992
:103DF000012000E000200028E7D101EB81020E4BFA
:103E000003EB820042685268426000F10802436896
:103E1000934202D14268526842604268D268074BBE
:103E20001A600448016000BF70470000F0090020DC
:103E3000D8090020CC090020E00F0020B4090020A0
:103E400070B504460D460349601808222946FDF75F
:103E50001DFE70BD00B000081CB53849084600784A
:103E60000190FF200A4610700846007800909DF8E7
:103E7000000000F0F0009DF80020904201D10120E8
:103E800000E0002050B900BF502080F31188BFF33C
:103E90004F8FBFF36F8F00BF00BFFEE79DF800009C
:103EA00000F05000264A10700720264A106009E0F2
:103EB00024480068401E234A10609DF80000400618
:103EC000000E00909DF8000000F080008028EFD0E8
:103ED0001C480068C0F10700042801D1012000E05F
:103EE000002050B900BF502080F31188BFF34F8FDE
:103EF000BFF36F8F00BF00BFFEE7124800680002EB
:103F0000104A10601046008800F4E06010600B4A10
:103F1000019810700C48006840F470000A4908606D
:103F20000846006840F070400860FFF78FFD0020F1
:103F300006490860FCF71AF900201CBD00E400E007
:103F40002C0A0020300A002020ED00E0280A002082
:103F50002DE9F84305460E4617460024E5B1601EDC
:103F6000B0FBF5F0B04217D305FB06F010F1510F8E
:103F700012D805FB06F808F15000FFF75DFA044679
:103F8000B4B1A14609F150093B464A46314628469C
:103F90000094FEF749FF0BE054B900BF502080F3B6
:103FA0001188BFF34F8FBFF36F8F00BF00BFFEE7D5
:103FB0002046BDE8F88300002DE9F04105460E4695
:103FC00001272C4654B900BF502080F31188BFF35D
:103FD0004F8FBFF36F8F00BF00BFFEE7002C42D0B2
:103FE000E06B00283FD04FF0FF31E06BB1FBF0F009
:103FF000216C884237D3FFF78FFCD4E90F12206879
:1040000001FB0200A0600020A06320686060E06BFC
:10401000401E226C216800FB0211E160FF2084F841
:10402000440084F845009EB9206908B9012000E0E9
:104030000020A8B904F1100000F08AFB80B14FF015
:10404000805013490860BFF34F8FBFF36F8F07E0B5
:1040500004F11000FFF72AFC04F12400FFF726FC0E
:10406000FFF784FC00E000270FB1012000E00020F2
:1040700050B900BF502080F31188BFF34F8FBFF3BA
:104080006F8F00BF00BFFEE73846BDE8F08100003B
:1040900004ED00E02DE9FF4383B0064688461D4647
:1040A0004FF00009344654B900BF502080F3118806
:1040B000BFF34F8FBFF36F8F00BF00BFFEE7B8F1B4
:1040C000000F01D1206C08B9012000E0002050B998
:1040D00000BF502080F31188BFF34F8FBFF36F8F65
:1040E00000BF00BFFEE7022D02D1E06B012801D125
:1040F000012000E0002050B900BF502080F311885B
:10410000BFF34F8FBFF36F8F00BF00BFFEE700F01C
:10411000C1F908B9059808B9012000E0002050B99C
:1041200000BF502080F31188BFF34F8FBFF36F8F14
:1041300000BF00BFFEE700BFFFF7EEFBA06BE16B27
:10414000884201D3022D28D12A4641462046FEF757
:10415000BCFD0746606A08B9012000E0002068B98C
:1041600004F1240000F0F4FA88B14FF08050324995
:104170000860BFF34F8FBFF36F8F08E03FB14FF080
:1041800080502D490860BFF34F8FBFF36F8FFFF74B
:10419000EDFB012007B0BDE8F083059818B9FFF7E3
:1041A000E5FB0020F6E7B9F1000F04D101A8FFF705
:1041B00049FD4FF00109FFF7D9FBFFF7F1FDFFF7CC
:1041C000ABFB94F94400401C10B9002084F8440073
:1041D00094F94500401C10B9002084F84500FFF711
:1041E000C5FB05A901A800F0DDF8F0B92046FEF7EF
:1041F00042FFA0B104F110000599FFF735FD2046FC
:10420000FFF7DBF800F034FB002895D14FF0805029
:1042100009490860BFF34F8FBFF36F8F8CE72046CB
:10422000FFF7CBF800F024FB86E72046FFF7C5F840
:1042300000F01EFB0020ADE704ED00E02DE9F741A2
:1042400083B005460E464FF000082C4654B900BF17
:10425000502080F31188BFF34F8FBFF36F8F00BFE3
:1042600000BFFEE70EB9206C08B9012000E0002075
:1042700050B900BF502080F31188BFF34F8FBFF3B8
:104280006F8F00BF00BFFEE700F004F908B9059882
:1042900008B9012000E0002050B900BF502080F391
:1042A0001188BFF34F8FBFF36F8F00BF00BFFEE7D2
:1042B00000BFFFF731FBA76BF7B131462046FEF791
:1042C000EFFC781EA063206908B9012000E00020FF
:1042D00060B904F1100000F03BFA38B14FF08050A3
:1042E0002F490860BFF34F8FBFF36F8FFFF73EFB7F
:1042F000012006B0BDE8F081059818B9FFF736FB3C
:104300000020F6E7B8F1000F04D101A8FFF79AFCEE
:104310004FF00108FFF72AFBFFF742FDFFF7FCFA19
:1043200094F94400401C10B9002084F8440094F92A
:104330004500401C10B9002084F84500FFF716FB2B
:1043400005A901A800F02EF8F0B92046FEF786FE78
:10435000A0B104F124000599FFF786FC2046FFF781
:104360002CF800F085FA0028A3D14FF080500C49BA
:104370000860BFF34F8FBFF36F8F9AE72046FFF7B8
:104380001CF800F075FA94E72046FFF716F800F0E5
:104390006FFA2046FEF762FE00288AD00020A8E7C8
:1043A00004ED00E070B505460C4655B900BF50203D
:1043B00080F31188BFF34F8FBFF36F8F00BF00BF33
:1043C000FEE754B900BF502080F31188BFF34F8F30
:1043D000BFF36F8F00BF00BFFEE7FFF79DFA1348E2
:1043E00002686868131A2068401C08B9002619E0A2
:1043F0000F4928680968884206D06868904203D847
:104400000126002020600DE02068984207D920682E
:10441000C01A20602846FFF715FC002602E00020A5
:1044200020600126FFF7A2FA304670BDC8090020BF
:10443000DC0900202DE9FF4F85B0804689461746EC
:10444000DDE912ABB800FEF7F7FF064656B15C2077
:10445000FEF7F2FF04460CB1266304E03046FFF796
:10446000A3FA00E000247CB10020CDE900ABCDE947
:1044700002403A4649464046089BFEF7EAFC204681
:10448000FEF744FB012501E04FF0FF35284609B057
:10449000BDE8F08F0549096809B9012005E0044924
:1044A000096809B9022000E000207047D009002007
:1044B000F00900200149086870470000C809002081
:1044C0002DE9F0414FF000086048006800287DD1D8
:1044D0005F480068451C5E48056015BB5D48006884
:1044E000006808B9012000E0002050B900BF50204A
:1044F00080F31188BFF34F8FBFF36F8F00BF00BFF2
:10450000FEE754480768544800685249086052481A
:10451000076052480068401C50490860FEF7D0FE12
:1045200000BF4F480068854276D300BF4948006805
:10453000006808B9012000E0002020B14FF0FF30F2
:104540004749086067E043480068C068C468666817
:10455000B54202D2424806605DE06069D4E90212C9
:104560008A60D4E902214A60211D42688A4201D151
:10457000E1684160002262610168491E0160A06A31
:1045800098B1A06AD4E907128A60D4E907214A6089
:1045900004F1180142688A4201D1216A4160002277
:1045A000A2620168491E016000BF2E49E06A0968E5
:1045B000884202D92B49E06A0860E16A01EB810177
:1045C000294A02EB81014868A06000E036E0826879
:1045D000E260211D826851608160E16A01EB810126
:1045E000214A02EB81026261E16A01EB81011E4A0C
:1045F00052F82110491CE26A02EB82021A4B43F87E
:1046000022101A49E06A0968C96A88428ED34FF0BD
:1046100001088BE700E000BF14480068C06A00EBA7
:104620008000114951F82000012801D94FF00108FC
:104630000F48006808B14FF0010804E00D48006819
:10464000401C0C4908604046BDE8F081F00900209C
:10465000C8090020B8090020BC090020DC0900209E
:10466000E4090020CC090020E00F0020B40900205C
:10467000D8090020D409002070B505462C46002634
:10468000002D5CD02F480068844201D1012000E059
:10469000002050B900BF502080F31188BFF34F8F26
:1046A000BFF36F8F00BF00BFFEE7206D50B900BFA2
:1046B000502080F31188BFF34F8FBFF36F8F00BF7F
:1046C00000BFFEE7206D401E2065E16CE06A884275
:1046D00035D0206D98BB201DFFF7D4F8E06CE06268
:1046E000E06AC0F13800A0611749E06A09688842B1
:1046F00002D91549E06A0860E16A01EB8101134AB9
:1047000002EB81014868A0608268E260211D826836
:1047100051608160E16A01EB81010C4A02EB810288
:104720006261E16A01EB8101084A52F82110491CDB
:10473000E26A02EB8202054B43F822100126304662
:1047400070BD0000B4090020CC090020E00F00205B
:1047500070B50346D868C16851B900BF502080F3D6
:104760001188BFF34F8FBFF36F8F00BF00BFFEE70D
:10477000886AD1E90745A560D1E90754656001F170
:1047800018044568A54201D10C6A446000258D6279
:104790000468641E04603048006800283CD1486901
:1047A000D1E90245A560D1E9025465600C1D456858
:1047B000A54201D1CC68446000254D610468641EA7
:1047C0000460264CC86A2468A04202D9234CC86AF7
:1047D0002060CC6A04EB8404214D05EB84046068FE
:1047E00088608568CD600C1D85686C608460CC6ACB
:1047F00004EB84041A4D05EB84054D61CC6A04EB8F
:104800008404174D55F82440641CCD6A05EB8505DA
:10481000134E46F8254010E0124C6068C861856868
:104820000D6201F1180485686C6084600D4D8D6225
:104830002C462468641C2C6000BF0B4CC86A24689A
:10484000E46AA04204D901220120084C206000E063
:104850000022104670BD0000F0090020CC090020A5
:10486000E00F002068140020B4090020D8090020BF
:1048700070B5002400265248006850B900BF50208F
:1048800080F31188BFF34F8FBFF36F8F00BF00BF5E
:10489000FEE7FFF741F84A480068401E48490860B3
:1048A0000846006800287DD146480068002879D075
:1048B0005AE04548C068C468A06AD4E907128A6013
:1048C000D4E907214A6004F1180142688A4201D103
:1048D000216A41600022A2620168491E016060698C
:1048E000D4E902128A60D4E902214A60211D42689B
:1048F0008A4201D1E1684160002262610168491E7B
:1049000001603249E06A0968884202D92F49E06AA9
:104910000860E16A01EB81012D4A02EB81014868E0
:10492000A0608268E260211D826851608160E16A56
:1049300001EB8101264A02EB81026261E16A01EB2F
:104940008101234A52F82110491CE26A02EB8202DB
:104950001F4B43F822101F49E06A0968C96A884260
:1049600002D301201C4908601748006808B90120DB
:1049700000E0002000289CD00CB1FEF7A1FC1748F5
:10498000056865B100BFFFF79BFD10B1012012491A
:1049900008606D1E002DF6D10020104908600E48F9
:1049A000006800E008E038B1012630070C490860D3
:1049B000BFF34F8FBFF36F8FFEF7D8FF304670BD48
:1049C000F0090020C409002068140020CC09002050
:1049D000E00F0020B4090020D8090020D4090020ED
:1049E00004ED00E01CB50024FEF704F90D48006852
:1049F00050B10D4802210023CA01CDE900100BA1DE
:104A00000C48FFF717FD044654B900BF502080F34F
:104A10001188BFF34F8FBFF36F8F00BF00BFFEE75A
:104A200020461CBDFC090020000A0020546D7220A5
:104A300053766300A1330008584A000800000020A4
:104A4000D80A00009C020008784F0008D80A00200D
:104A5000F83E00007C240008011584A24A04600985
:104A600001020304060708091389F215FF01F9FF83
:104A700012FC22FF100B07040402010204010407C8
:104A80001311F618090424E42424FF050618191646
:104A900017030101010207100C8A6AFF4920AFA920
:104AA000E9A9AF20120112071C04040436195D1095
:104AB0000BFE424A4A5BEA5A4AC2422306011917D0
:104AC000611EFC949494FF041AFE241918111A0311
:104AD0002E1304061B20210147F9292523312079B3
:104AE0002F480818D654FF5456D4901A03613B023D
:104AF000031D280B1008FC130804FF242424C929D3
:104B00002D1A07911201100C406252CA47E242DE90
:104B100050505819BD394819C3111F04A424A424A6
:104B2000BF2F13A6041A02A91C0404057612033829
:104B30000C8444F52E401010FF1010104879C081ED
:104B4000422F2A07621B147F021116242A7F2A1281
:104B50001662640813232636495522504305033450
:104B60001C22411C41221C2A15083E08141A080662
:104B7000320823A0602A0801211A600B11162010A8
:104B8000080402263E5149453E1C427F40051561FE
:104B9000514946162141454B31161814127F101603
:104BA0002745454539163C4A4949301C017109627F
:104BB00016364949493626064949291E4336362ABA
:104BC00056062B0814782A1401297E1B1408DF14BA
:104BD00051090616324959513E167C1211127C3A7F
:104BE0007F3C163E414141221A7F053A1C12124178
:104BF0001E7F09090901181449497A1A7FA11A7FF1
:104C0000421A7F4E1E2040413F0112295B1B7F400C
:104C10000111167F020C027F3E7F0408107F483A84
:104C20003E3C1A060C1C51215E0C141929461A46EA
:104C30005412311601017F01011A3F35123F1E1F28
:104C40002040201F0C1A380C166314081463160732
:104C50000870080719EF234543198B211B552A02B9
:104C600019781A417D160402010204297122402993
:104C70000B11162054545478167F484444382E386B
:104C8000444444200613487F1A3818121816087E28
:104C90000901021D18A4A4A4E425080404781B44F7
:104CA0007D3B1D4080847D5F341028441B417F1272
:104CB0001C7C04181E3A7C242948123816FC242433
:104CC00024181A18053AFC1812081A48541220160B
:104CD000043F444020163C4040207C1A1CC01A1C53
:104CE0000C1430403C2B44284F161CA0A0A07C3F45
:104CF0004464544C44140101333CC0C0C0E3091265
:104D0000010237C00C18FFFFFF1C094D540C4FE087
:104D1000E0E0540C4F03030354093AFC0D16070757
:104D20000704010223070B10C040010B12C0C0167C
:104D3000591C0922E80919FC4660F090B0E03D20BA
:104D40002020E0090924FC12FF0C11F0F0F0543887
:104D50001303FEF0E0380F0E0A86C6465E786060E8
:104D6000607F7FA70925540C120F0F0FA81008FFB2
:104D700002070FFEFEC00B1F01FED80927FC1A1FF9
:104D8000BE1503013F380B2EEFF8540B100704013A
:104D90002B0707163B070601BC0407051C0110384A
:104DA0000AE060E0E0FE0301010E4D193B597C284A
:104DB0001001C1794D454D79C10101FF0F080B0864
:104DC000011906380B0FFF0101FD65E5A53D01182E
:104DD00029132A091D191878087D81C13DC1817DDB
:104DE000183904120FBDF84CC4CCD604248080803E
:104DF0001D80C0C0C09A3AFF011DFEFEFCF0106984
:104E0000392A03013119BB1BF8FC0159258EFCF02E
:104E1000E0E0E026B974191A4808F0F0F3FBFBFD56
:104E2000FD2D990118083E3E3E0F0730F801194B41
:104E30005971680AFFFBFB03FBFBFFFF0325190EFB
:104E4000180CFBFF03DFDFDE02FEFEFA030B2CF380
:104E5000CF3F1E7017077B730FFFFFBF9F8FBFBF32
:104E60009F1F1F0F0F0707070303016808010103B6
:104E7000010107DF442CFBFBF85419051906190141
:104E800039092AF809191C3AF80B3CFEF9F81239CD
:104E9000051009FBE18101803A2A2E48083E223E96
:104EA000803E2A3ED92CF0E04004180A01F10303A9
:104EB0000307070F0F7519032901197CFC0F0F8FCA
:104EC000E0A901157F9F8F8713FE011301FF200AC0
:104ED0000523AF2BFD2BAF2305100F7C0578047C39
:104EE000017C5454017C08107C14781478A47C4014
:104EF0007C19C5495F19DC19624CCFFFFF0E29EB05
:104F000012011008070F07017881782309FD1FC1DE
:104F1000C001FD848409013B023B371AAA0101103C
:104F2000280B416464202055736572200111AC4444
:104F3000656C0F880B526F6F74204C6F67696E0F32
:104F40003932890F1C204F7505290F3C4D6F643B8A
:104F50001D446174610F380C53797374656D204979
:104F60006E666F1E2B616B56690F4E696E697420F9
:084F700041790F89786100000E
:04000005080001E10D
:00000001FF
