:020000040800F2
:10000000400C002065020008230300081B030008C1
:100010001F030008150300086F0700080000000018
:10002000000000000000000000000000CD010008FA
:100030001903000800000000110200080D04000868
:100040007F0200087F0200087F0200087F0200088C
:100050007F0200087F0200087F0200087F0200087C
:100060007F0200087F0200087F0200087F0200086C
:100070007F0200087F0200087F0200087F0200085C
:100080007F0200087F0200087F0200087F0200084C
:100090007F0200087F0200087F0200087F0200083C
:1000A0007F0200087F0200087F0200087F0200082C
:1000B0007F0200087F020008A10400087F020008F8
:1000C0007F0200087F0200087F0200087F0200080C
:1000D0007F020008890600087F0200087F020008EE
:1000E0007F0200087F0200087F0200087F020008EC
:1000F0007F0200087F0200087F0200087F020008DC
:100100007F0200087F0200087F0200087F020008CB
:100110007F0200087F0200087F0200087F020008BB
:100120007F0200087F0200087F0200087F020008AB
:1001300000F002F800F03AF80AA090E8000C8244BF
:100140008344AAF10107DA4501D100F02FF8AFF29C
:10015000090EBAE80F0013F0010F18BFFB1A43F0A5
:100160000103184790080000B0080000103A24BFAF
:1001700078C878C1FAD8520724BF30C830C144BF0C
:1001800004680C607047000000230024002500264E
:10019000103A28BF78C1FBD8520728BF30C148BFEA
:1001A0000B6070471FB51FBD10B510BD00F07FF884
:1001B0001146FFF7F7FF00F0DEFA00F09DF803B4F8
:1001C000FFF7F2FF03BC00F0D4FA0000224B1968DD
:1001D0000868B0E8F00F80F30988BFF36F8F4FF025
:1001E000000080F311884EF00D0E704700000000F3
:1001F00006480068006880F3088862B661B6BFF3FD
:100200004F8FBFF36F8F00DF00BF00BF08ED00E02E
:10021000EFF30980BFF36F8F0F4B1A6820E9F00FDF
:10022000106008B54FF0500080F31188BFF34F8F76
:10023000BFF36F8F00F0BAFA4FF0000080F311881F
:10024000BDE8084019680868B0E8F00F80F3098835
:10025000BFF36F8F704700BF14000020EFF30580DD
:10026000704700000948804709480047FEE7FEE75D
:10027000FEE7FEE7FEE7FEE7FEE7FEE7FEE7FEE756
:1002800004480549054A064B704700004104000830
:100290003101000840060020400C002040080020EA
:1002A0004008002070477047704770477047754698
:1002B00000F02CF8AE4605006946534620F00700D2
:1002C000854618B020B5FFF7DBFFBDE820404FF0B2
:1002D00000064FF000074FF000084FF0000B21F030
:1002E0000701AC46ACE8C009ACE8C009ACE8C009FD
:1002F000ACE8C0098D46704710B50446AFF30080E6
:100300002046BDE81040FFF75ABF00000048704784
:10031000E005002000BFFEE7704700BFFEE700BF1A
:10032000FEE7704710B500F001F810BD0CB50020D5
:10033000019000903348006840F4803031490860F3
:1003400000BF3048006800F4003000900198401C65
:100350000190009818B90198B0F5A06FF1D1294823
:10036000006800F4003010B10120009001E000208E
:1003700000900098012843D12348006840F0100005
:10038000214908600846006820F00300086008461C
:10039000006840F0020008601A4840681949486047
:1003A0000846406848600846406840F480604860FD
:1003B0000846406820F47C1048600846406840F4D5
:1003C000E81048600846006840F08070086000BF90
:1003D0000C48006800F000700028F9D00948406817
:1003E00020F00300074948600846406840F00200DA
:1003F000486000BF0348406800F00C000828F9D1AD
:100400000CBD0000001002400020024010B500BFEB
:10041000502080F31188BFF34F8FBFF36F8F00BF61
:1004200000F00CFA18B14FF080500449086000BF8A
:10043000002080F3118800BF10BD000004ED00E033
:1004400010B51348006840F00100114908600846E3
:100450004068104908400E494860084600680E4947
:1004600008400B4908600846006820F480200860B6
:100470000846406820F4FE0048604FF41F00886082
:10048000FFF750FF4FF000600449086010BD000006
:10049000001002400000FFF8FFFFF6FE08ED00E04C
:1004A00010B501215E4800F0CEF8F8B15D48007843
:1004B00000F08000D0B15B48007820F0100059496E
:1004C00008700846007800F00F0020B90846007850
:1004D00040F0400008705348007800F00F000E28EC
:1004E00005DA50480078401C4E4908700AE04D4833
:1004F000007820F080004B4908700846007800F032
:10050000F00008701021464800F09DF8002810D037
:100510004548006870B10221414800F0A5F800216B
:100520003F4800F0AEF83F48007840F010003D49E9
:10053000087070E03A4800F082F83C4908800021D9
:10054000374800F091F83748007800F01000002894
:100550005BD03448007800F08000E8B3334800886E
:10056000B0F5967F0DDD31480088B0F5487F08DA98
:100570002F48006840002E4908600846006808605F
:1005800043E02A480088B0F5AF6F0FDD27480088A8
:10059000B0F5E16F0ADA2648006840002449086097
:1005A0000846006840F0010008602EE01F480088FF
:1005B00040F69801884228DD1C48008840F6282132
:1005C000884222DA1B480078401C1A4908701548F6
:1005D000007800F0F00000E002E01249087014E03A
:1005E0001248008841F2680188420EDD0F480088F9
:1005F00041F25C21884208DA0A48007840F0800025
:100600000849087000200B4908700648007820F05F
:100610001000044908701121014800F00DF810BDC8
:100620000008004008000020248121420A00002028
:100630000C00002010000020CA43028270470146CF
:10064000B1F84000704730B5024600200023002476
:10065000158A05EA0103958905EA010413B10CB175
:10066000012000E0002030BD0A460021018C4DF63B
:10067000FF7319404FF6FF7303EA023319430184F5
:10068000704781847047000010B540F225511D4825
:1006900000F03EF810B31B4800F064F8C4B21A48EA
:1006A000008800F40040C8B91748008800F4804072
:1006B00060B10A2C03D000201349088020E01248C2
:1006C000008840F400401049088019E00D2C06D144
:1006D0000D48008840F480400B49088010E00A482B
:1006E0000088C0F30D0009490C5407480088401CDD
:1006F0000549088008460088C72801DD00200880D9
:1007000010BD00000038014004000020540000200B
:1007100070B50246002400230025002040F66A162A
:10072000B14200D100BFC1F3421501F01F03012601
:1007300006FA03F3012D02D19689334006E0022D1B
:1007400002D1168A334001E0968A33400C1201260A
:1007500006FA04F41688344013B10CB1012000E00D
:10076000002070BD01468888C0F30800704700BFB4
:10077000FEE700BF7047002070470000094800688E
:10078000006808B9012000E0002020B14FF0FF30E0
:100790000549086005E003480068C0680068024930
:1007A0000860704718000020440000201E480068C0
:1007B00018B101201D49086034E000201B49086081
:1007C0001B4801680CE051B900BF502080F311882C
:1007D000BFF34F8FBFF36F8F00BF00BFFEE7491E0F
:1007E00001EB8100134A52F8200008B9012000E013
:1007F00000200028E7D101EB81020E4B03EB8200C1
:1008000042685268426000F108024368934202D194
:100810004268526842604268D268074B1A600448D6
:10082000016000BF70470000500000203800002029
:100830002C0000201C010020140000202DE9F041B4
:100840004FF000086048006800287DD15F480068CC
:10085000451C5E48056015BB5D480068006808B926
:10086000012000E0002050B900BF502080F3118823
:10087000BFF34F8FBFF36F8F00BF00BFFEE7544839
:100880000768544800685249086052480760524857
:100890000068401C50490860FFF770FF00BF4F48D8
:1008A0000068854276D300BF49480068006808B9EF
:1008B000012000E0002020B14FF0FF3047490860E0
:1008C00067E043480068C068C4686668B54202D201
:1008D000424806605DE06069D4E902128A60D4E9AA
:1008E00002214A60211D42688A4201D1E1684160CB
:1008F000002262610168491E0160A06A98B1A06A85
:10090000D4E907128A60D4E907214A6004F118018A
:1009100042688A4201D1216A41600022A2620168D4
:10092000491E016000BF2E49E06A0968884202D969
:100930002B49E06A0860E16A01EB8101294A02EB78
:1009400081014868A06000E036E08268E260211D15
:10095000826851608160E16A01EB8101214A02EB0A
:1009600081026261E16A01EB81011E4A52F82110A5
:10097000491CE26A02EB82021A4B43F822101A4920
:10098000E06A0968C96A88428ED34FF001088BE794
:1009900000E000BF14480068C06A00EB8000114905
:1009A00051F82000012801D94FF001080F480068D4
:1009B00008B14FF0010804E00D480068401C0C49E4
:1009C00008604046BDE8F08150000020280000206B
:1009D000180000201C0000203C00002044000020E3
:1009E0002C0000201C0100201400002038000020F2
:1009F00034000020140A0008000000205400000009
:100A00006C010008680A000854000020EC0B00008C
:100A10008801000800000000000000000000000045
:100A200000000000000000000000000000000000C6
:100A300000000000000000000000000000000000B6
:100A400000000000000000000000000000000000A6
:100A50000000000000000000000000000000000096
:080A6000370000000000000057
:040000050800026588
:00000001FF
